{
  "_format": "hh-sol-artifact-1",
  "contractName": "DocumentSigner",
  "sourceName": "contracts/DocumentRegistry.sol",
  "abi": [
    {
      "anonymous": false,
      "inputs": [
        {
          "indexed": true,
          "internalType": "bytes32",
          "name": "documentId",
          "type": "bytes32"
        },
        {
          "indexed": true,
          "internalType": "address",
          "name": "creator",
          "type": "address"
        },
        {
          "indexed": false,
          "internalType": "string",
          "name": "title",
          "type": "string"
        }
      ],
      "name": "DocumentSaved",
      "type": "event"
    },
    {
      "anonymous": false,
      "inputs": [
        {
          "indexed": true,
          "internalType": "bytes32",
          "name": "documentId",
          "type": "bytes32"
        },
        {
          "indexed": true,
          "internalType": "address",
          "name": "signer",
          "type": "address"
        }
      ],
      "name": "DocumentSigned",
      "type": "event"
    },
    {
      "inputs": [
        {
          "internalType": "bytes32",
          "name": "",
          "type": "bytes32"
        }
      ],
      "name": "documents",
      "outputs": [
        {
          "internalType": "bool",
          "name": "exists",
          "type": "bool"
        },
        {
          "internalType": "address",
          "name": "creator",
          "type": "address"
        },
        {
          "internalType": "string",
          "name": "title",
          "type": "string"
        },
        {
          "internalType": "bytes32",
          "name": "contentHash",
          "type": "bytes32"
        }
      ],
      "stateMutability": "view",
      "type": "function"
    },
    {
      "inputs": [
        {
          "internalType": "bytes32",
          "name": "documentId",
          "type": "bytes32"
        }
      ],
      "name": "getDocument",
      "outputs": [
        {
          "internalType": "address",
          "name": "creator",
          "type": "address"
        },
        {
          "internalType": "string",
          "name": "title",
          "type": "string"
        },
        {
          "internalType": "bytes32",
          "name": "contentHash",
          "type": "bytes32"
        },
        {
          "internalType": "address[]",
          "name": "signersList",
          "type": "address[]"
        }
      ],
      "stateMutability": "view",
      "type": "function"
    },
    {
      "inputs": [
        {
          "internalType": "bytes32",
          "name": "documentId",
          "type": "bytes32"
        }
      ],
      "name": "getSigners",
      "outputs": [
        {
          "internalType": "address[]",
          "name": "",
          "type": "address[]"
        }
      ],
      "stateMutability": "view",
      "type": "function"
    },
    {
      "inputs": [
        {
          "internalType": "bytes32",
          "name": "documentId",
          "type": "bytes32"
        },
        {
          "internalType": "address",
          "name": "user",
          "type": "address"
        }
      ],
      "name": "hasUserSigned",
      "outputs": [
        {
          "internalType": "bool",
          "name": "",
          "type": "bool"
        }
      ],
      "stateMutability": "view",
      "type": "function"
    },
    {
      "inputs": [
        {
          "internalType": "bytes32",
          "name": "documentId",
          "type": "bytes32"
        },
        {
          "internalType": "string",
          "name": "title",
          "type": "string"
        },
        {
          "internalType": "bytes32",
          "name": "contentHash",
          "type": "bytes32"
        }
      ],
      "name": "saveDocument",
      "outputs": [],
      "stateMutability": "nonpayable",
      "type": "function"
    },
    {
      "inputs": [
        {
          "internalType": "bytes32",
          "name": "documentId",
          "type": "bytes32"
        }
      ],
      "name": "signDocument",
      "outputs": [],
      "stateMutability": "nonpayable",
      "type": "function"
    }
  ],
  "bytecode": "0x6080604052348015600f57600080fd5b506113d68061001f6000396000f3fe608060405234801561001057600080fd5b50600436106100625760003560e01c8063166cba38146100675780632b2805db14610083578063b10d6b41146100b6578063bfb471ad146100e9578063e7ec6aef14610105578063f12115b414610135575b600080fd5b610081600480360381019061007c9190610a43565b610165565b005b61009d60048036038101906100989190610a43565b610375565b6040516100ad9493929190610b6b565b60405180910390f35b6100d060048036038101906100cb9190610a43565b61045a565b6040516100e09493929190610c75565b60405180910390f35b61010360048036038101906100fe9190610d2d565b610632565b005b61011f600480360381019061011a9190610a43565b61082e565b60405161012c9190610da1565b60405180910390f35b61014f600480360381019061014a9190610def565b610935565b60405161015c9190610e2f565b60405180910390f35b8060008082815260200190815260200160002060000160009054906101000a900460ff166101c8576040517f08c379a00000000000000000000000000000000000000000000000000000000081526004016101bf90610e96565b60405180910390fd5b600080600084815260200190815260200160002090508060030160003373ffffffffffffffffffffffffffffffffffffffff1673ffffffffffffffffffffffffffffffffffffffff16815260200190815260200160002060009054906101000a900460ff161561026d576040517f08c379a000000000000000000000000000000000000000000000000000000000815260040161026490610f28565b60405180910390fd5b60018160030160003373ffffffffffffffffffffffffffffffffffffffff1673ffffffffffffffffffffffffffffffffffffffff16815260200190815260200160002060006101000a81548160ff02191690831515021790555080600401339080600181540180825580915050600190039060005260206000200160009091909190916101000a81548173ffffffffffffffffffffffffffffffffffffffff021916908373ffffffffffffffffffffffffffffffffffffffff1602179055503373ffffffffffffffffffffffffffffffffffffffff16837ffc566ede6102b78343776b8847b3fac426f2ca3c96a1b9ead9faa5994b22b1ed60405160405180910390a3505050565b60006020528060005260406000206000915090508060000160009054906101000a900460ff16908060000160019054906101000a900473ffffffffffffffffffffffffffffffffffffffff16908060010180546103d190610f77565b80601f01602080910402602001604051908101604052809291908181526020018280546103fd90610f77565b801561044a5780601f1061041f5761010080835404028352916020019161044a565b820191906000526020600020905b81548152906001019060200180831161042d57829003601f168201915b5050505050908060020154905084565b60006060600060608460008082815260200190815260200160002060000160009054906101000a900460ff166104c5576040517f08c379a00000000000000000000000000000000000000000000000000000000081526004016104bc90610e96565b60405180910390fd5b600080600088815260200190815260200160002090508060000160019054906101000a900473ffffffffffffffffffffffffffffffffffffffff168160010182600201548360040182805461051990610f77565b80601f016020809104026020016040519081016040528092919081815260200182805461054590610f77565b80156105925780601f1061056757610100808354040283529160200191610592565b820191906000526020600020905b81548152906001019060200180831161057557829003601f168201915b505050505092508080548060200260200160405190810160405280929190818152602001828054801561061a57602002820191906000526020600020905b8160009054906101000a900473ffffffffffffffffffffffffffffffffffffffff1673ffffffffffffffffffffffffffffffffffffffff16815260200190600101908083116105d0575b50505050509050955095509550955050509193509193565b60008383905011610678576040517f08c379a000000000000000000000000000000000000000000000000000000000815260040161066f90610ff4565b60405180910390fd5b600080600086815260200190815260200160002090508060000160009054906101000a900460ff166107775760018160000160006101000a81548160ff021916908315150217905550338160000160016101000a81548173ffffffffffffffffffffffffffffffffffffffff021916908373ffffffffffffffffffffffffffffffffffffffff1602179055508383826001019182610717929190611204565b508181600201819055503373ffffffffffffffffffffffffffffffffffffffff16857f2695969501fa6a3e490535166adda159da0e99cba77ca2eed82d9088a038075c868660405161076a929190611310565b60405180910390a3610827565b3373ffffffffffffffffffffffffffffffffffffffff168160000160019054906101000a900473ffffffffffffffffffffffffffffffffffffffff1673ffffffffffffffffffffffffffffffffffffffff1614610809576040517f08c379a000000000000000000000000000000000000000000000000000000000815260040161080090611380565b60405180910390fd5b838382600101918261081c929190611204565b508181600201819055505b5050505050565b60608160008082815260200190815260200160002060000160009054906101000a900460ff16610893576040517f08c379a000000000000000000000000000000000000000000000000000000000815260040161088a90610e96565b60405180910390fd5b60008084815260200190815260200160002060040180548060200260200160405190810160405280929190818152602001828054801561092857602002820191906000526020600020905b8160009054906101000a900473ffffffffffffffffffffffffffffffffffffffff1673ffffffffffffffffffffffffffffffffffffffff16815260200190600101908083116108de575b5050505050915050919050565b60008260008082815260200190815260200160002060000160009054906101000a900460ff1661099a576040517f08c379a000000000000000000000000000000000000000000000000000000000815260040161099190610e96565b60405180910390fd5b60008085815260200190815260200160002060030160008473ffffffffffffffffffffffffffffffffffffffff1673ffffffffffffffffffffffffffffffffffffffff16815260200190815260200160002060009054906101000a900460ff1691505092915050565b600080fd5b600080fd5b6000819050919050565b610a2081610a0d565b8114610a2b57600080fd5b50565b600081359050610a3d81610a17565b92915050565b600060208284031215610a5957610a58610a03565b5b6000610a6784828501610a2e565b91505092915050565b60008115159050919050565b610a8581610a70565b82525050565b600073ffffffffffffffffffffffffffffffffffffffff82169050919050565b6000610ab682610a8b565b9050919050565b610ac681610aab565b82525050565b600081519050919050565b600082825260208201905092915050565b60005b83811015610b06578082015181840152602081019050610aeb565b60008484015250505050565b6000601f19601f8301169050919050565b6000610b2e82610acc565b610b388185610ad7565b9350610b48818560208601610ae8565b610b5181610b12565b840191505092915050565b610b6581610a0d565b82525050565b6000608082019050610b806000830187610a7c565b610b8d6020830186610abd565b8181036040830152610b9f8185610b23565b9050610bae6060830184610b5c565b95945050505050565b600081519050919050565b600082825260208201905092915050565b6000819050602082019050919050565b610bec81610aab565b82525050565b6000610bfe8383610be3565b60208301905092915050565b6000602082019050919050565b6000610c2282610bb7565b610c2c8185610bc2565b9350610c3783610bd3565b8060005b83811015610c68578151610c4f8882610bf2565b9750610c5a83610c0a565b925050600181019050610c3b565b5085935050505092915050565b6000608082019050610c8a6000830187610abd565b8181036020830152610c9c8186610b23565b9050610cab6040830185610b5c565b8181036060830152610cbd8184610c17565b905095945050505050565b600080fd5b600080fd5b600080fd5b60008083601f840112610ced57610cec610cc8565b5b8235905067ffffffffffffffff811115610d0a57610d09610ccd565b5b602083019150836001820283011115610d2657610d25610cd2565b5b9250929050565b60008060008060608587031215610d4757610d46610a03565b5b6000610d5587828801610a2e565b945050602085013567ffffffffffffffff811115610d7657610d75610a08565b5b610d8287828801610cd7565b93509350506040610d9587828801610a2e565b91505092959194509250565b60006020820190508181036000830152610dbb8184610c17565b905092915050565b610dcc81610aab565b8114610dd757600080fd5b50565b600081359050610de981610dc3565b92915050565b60008060408385031215610e0657610e05610a03565b5b6000610e1485828601610a2e565b9250506020610e2585828601610dda565b9150509250929050565b6000602082019050610e446000830184610a7c565b92915050565b7f446f63756d656e7420646f6573206e6f74206578697374000000000000000000600082015250565b6000610e80601783610ad7565b9150610e8b82610e4a565b602082019050919050565b60006020820190508181036000830152610eaf81610e73565b9050919050565b7f557365722068617320616c7265616479207369676e6564207468697320646f6360008201527f756d656e74000000000000000000000000000000000000000000000000000000602082015250565b6000610f12602583610ad7565b9150610f1d82610eb6565b604082019050919050565b60006020820190508181036000830152610f4181610f05565b9050919050565b7f4e487b7100000000000000000000000000000000000000000000000000000000600052602260045260246000fd5b60006002820490506001821680610f8f57607f821691505b602082108103610fa257610fa1610f48565b5b50919050565b7f5469746c652063616e6e6f7420626520656d7074790000000000000000000000600082015250565b6000610fde601583610ad7565b9150610fe982610fa8565b602082019050919050565b6000602082019050818103600083015261100d81610fd1565b9050919050565b600082905092915050565b7f4e487b7100000000000000000000000000000000000000000000000000000000600052604160045260246000fd5b60008190508160005260206000209050919050565b60006020601f8301049050919050565b600082821b905092915050565b6000600883026110b07fffffffffffffffffffffffffffffffffffffffffffffffffffffffffffffffff82611073565b6110ba8683611073565b95508019841693508086168417925050509392505050565b6000819050919050565b6000819050919050565b60006111016110fc6110f7846110d2565b6110dc565b6110d2565b9050919050565b6000819050919050565b61111b836110e6565b61112f61112782611108565b848454611080565b825550505050565b600090565b611144611137565b61114f818484611112565b505050565b5b818110156111735761116860008261113c565b600181019050611155565b5050565b601f8211156111b8576111898161104e565b61119284611063565b810160208510156111a1578190505b6111b56111ad85611063565b830182611154565b50505b505050565b600082821c905092915050565b60006111db600019846008026111bd565b1980831691505092915050565b60006111f483836111ca565b9150826002028217905092915050565b61120e8383611014565b67ffffffffffffffff8111156112275761122661101f565b5b6112318254610f77565b61123c828285611177565b6000601f83116001811461126b5760008415611259578287013590505b61126385826111e8565b8655506112cb565b601f1984166112798661104e565b60005b828110156112a15784890135825560018201915060208501945060208101905061127c565b868310156112be57848901356112ba601f8916826111ca565b8355505b6001600288020188555050505b50505050505050565b82818337600083830152505050565b60006112ef8385610ad7565b93506112fc8385846112d4565b61130583610b12565b840190509392505050565b6000602082019050818103600083015261132b8184866112e3565b90509392505050565b7f4f6e6c792063726561746f722063616e2075706461746520646f63756d656e74600082015250565b600061136a602083610ad7565b915061137582611334565b602082019050919050565b600060208201905081810360008301526113998161135d565b905091905056fea26469706673582212203701775019f46f0004bfd47bf892ee96c9ff4427aa5a3db8e31793729f9d791a64736f6c634300081b0033",
  "linkReferences": {},
  "deployedLinkReferences": {}
}