{
  "_format": "hh-sol-artifact-1",
  "contractName": "LegalDocs",
  "sourceName": "contracts/LegalDocs.sol",
  "abi": [
    {
      "inputs": [],
      "stateMutability": "nonpayable",
      "type": "constructor"
    },
    {
      "anonymous": false,
      "inputs": [
        {
          "indexed": false,
          "internalType": "uint256",
          "name": "id",
          "type": "uint256"
        },
        {
          "indexed": false,
          "internalType": "string",
          "name": "title",
          "type": "string"
        },
        {
          "indexed": false,
          "internalType": "string",
          "name": "content",
          "type": "string"
        },
        {
          "indexed": false,
          "internalType": "address",
          "name": "author",
          "type": "address"
        },
        {
          "indexed": false,
          "internalType": "enum LegalDocs.DocumentType",
          "name": "docType",
          "type": "uint8"
        }
      ],
      "name": "DocumentAdded",
      "type": "event"
    },
    {
      "inputs": [
        {
          "internalType": "string",
          "name": "_title",
          "type": "string"
        },
        {
          "internalType": "string",
          "name": "_content",
          "type": "string"
        },
        {
          "internalType": "enum LegalDocs.DocumentType",
          "name": "_docType",
          "type": "uint8"
        }
      ],
      "name": "addDocument",
      "outputs": [],
      "stateMutability": "nonpayable",
      "type": "function"
    },
    {
      "inputs": [],
      "name": "documentCount",
      "outputs": [
        {
          "internalType": "uint256",
          "name": "",
          "type": "uint256"
        }
      ],
      "stateMutability": "view",
      "type": "function"
    },
    {
      "inputs": [
        {
          "internalType": "uint256",
          "name": "",
          "type": "uint256"
        }
      ],
      "name": "documents",
      "outputs": [
        {
          "internalType": "string",
          "name": "title",
          "type": "string"
        },
        {
          "internalType": "string",
          "name": "content",
          "type": "string"
        },
        {
          "internalType": "address",
          "name": "author",
          "type": "address"
        },
        {
          "internalType": "bool",
          "name": "isSigned",
          "type": "bool"
        },
        {
          "internalType": "enum LegalDocs.DocumentType",
          "name": "docType",
          "type": "uint8"
        }
      ],
      "stateMutability": "view",
      "type": "function"
    },
    {
      "inputs": [],
      "name": "owner",
      "outputs": [
        {
          "internalType": "address",
          "name": "",
          "type": "address"
        }
      ],
      "stateMutability": "view",
      "type": "function"
    }
  ],
  "bytecode": "0x60806040526000600255348015601457600080fd5b50336000806101000a81548173ffffffffffffffffffffffffffffffffffffffff021916908373ffffffffffffffffffffffffffffffffffffffff160217905550610d36806100646000396000f3fe608060405234801561001057600080fd5b506004361061004c5760003560e01c80638da5cb5b14610051578063a5b16b2e1461006f578063a7c5e3cc1461008d578063c2ed2b05146100a9575b600080fd5b6100596100dd565b60405161006691906104ba565b60405180910390f35b610077610101565b60405161008491906104ee565b60405180910390f35b6100a760048036038101906100a29190610688565b610107565b005b6100c360048036038101906100be919061073f565b6102f9565b6040516100d495949392919061087d565b60405180910390f35b60008054906101000a900473ffffffffffffffffffffffffffffffffffffffff1681565b60025481565b6000600381111561011b5761011a610806565b5b81600381111561012e5761012d610806565b5b0361016e576040517f08c379a00000000000000000000000000000000000000000000000000000000081526004016101659061092a565b60405180910390fd5b6002600081548092919061018190610979565b91905055506040518060a001604052808481526020018381526020013373ffffffffffffffffffffffffffffffffffffffff1681526020016000151581526020018260038111156101d5576101d4610806565b5b81525060016000600254815260200190815260200160002060008201518160000190816102029190610bcd565b5060208201518160010190816102189190610bcd565b5060408201518160020160006101000a81548173ffffffffffffffffffffffffffffffffffffffff021916908373ffffffffffffffffffffffffffffffffffffffff16021790555060608201518160020160146101000a81548160ff02191690831515021790555060808201518160020160156101000a81548160ff021916908360038111156102ab576102aa610806565b5b02179055509050507f44bc4c54888713e45cfbaa5c5a7f759487f6c7ee73765d1c19390d5dcfaeb491600254848433856040516102ec959493929190610c9f565b60405180910390a1505050565b600160205280600052604060002060009150905080600001805461031c906109f0565b80601f0160208091040260200160405190810160405280929190818152602001828054610348906109f0565b80156103955780601f1061036a57610100808354040283529160200191610395565b820191906000526020600020905b81548152906001019060200180831161037857829003601f168201915b5050505050908060010180546103aa906109f0565b80601f01602080910402602001604051908101604052809291908181526020018280546103d6906109f0565b80156104235780601f106103f857610100808354040283529160200191610423565b820191906000526020600020905b81548152906001019060200180831161040657829003601f168201915b5050505050908060020160009054906101000a900473ffffffffffffffffffffffffffffffffffffffff16908060020160149054906101000a900460ff16908060020160159054906101000a900460ff16905085565b600073ffffffffffffffffffffffffffffffffffffffff82169050919050565b60006104a482610479565b9050919050565b6104b481610499565b82525050565b60006020820190506104cf60008301846104ab565b92915050565b6000819050919050565b6104e8816104d5565b82525050565b600060208201905061050360008301846104df565b92915050565b6000604051905090565b600080fd5b600080fd5b600080fd5b600080fd5b6000601f19601f8301169050919050565b7f4e487b7100000000000000000000000000000000000000000000000000000000600052604160045260246000fd5b61057082610527565b810181811067ffffffffffffffff8211171561058f5761058e610538565b5b80604052505050565b60006105a2610509565b90506105ae8282610567565b919050565b600067ffffffffffffffff8211156105ce576105cd610538565b5b6105d782610527565b9050602081019050919050565b82818337600083830152505050565b6000610606610601846105b3565b610598565b90508281526020810184848401111561062257610621610522565b5b61062d8482856105e4565b509392505050565b600082601f83011261064a5761064961051d565b5b813561065a8482602086016105f3565b91505092915050565b6004811061067057600080fd5b50565b60008135905061068281610663565b92915050565b6000806000606084860312156106a1576106a0610513565b5b600084013567ffffffffffffffff8111156106bf576106be610518565b5b6106cb86828701610635565b935050602084013567ffffffffffffffff8111156106ec576106eb610518565b5b6106f886828701610635565b925050604061070986828701610673565b9150509250925092565b61071c816104d5565b811461072757600080fd5b50565b60008135905061073981610713565b92915050565b60006020828403121561075557610754610513565b5b60006107638482850161072a565b91505092915050565b600081519050919050565b600082825260208201905092915050565b60005b838110156107a657808201518184015260208101905061078b565b60008484015250505050565b60006107bd8261076c565b6107c78185610777565b93506107d7818560208601610788565b6107e081610527565b840191505092915050565b60008115159050919050565b610800816107eb565b82525050565b7f4e487b7100000000000000000000000000000000000000000000000000000000600052602160045260246000fd5b6004811061084657610845610806565b5b50565b600081905061085782610835565b919050565b600061086782610849565b9050919050565b6108778161085c565b82525050565b600060a082019050818103600083015261089781886107b2565b905081810360208301526108ab81876107b2565b90506108ba60408301866104ab565b6108c760608301856107f7565b6108d4608083018461086e565b9695505050505050565b7f496e76616c696420646f63756d656e7420747970652e00000000000000000000600082015250565b6000610914601683610777565b915061091f826108de565b602082019050919050565b6000602082019050818103600083015261094381610907565b9050919050565b7f4e487b7100000000000000000000000000000000000000000000000000000000600052601160045260246000fd5b6000610984826104d5565b91507fffffffffffffffffffffffffffffffffffffffffffffffffffffffffffffffff82036109b6576109b561094a565b5b600182019050919050565b7f4e487b7100000000000000000000000000000000000000000000000000000000600052602260045260246000fd5b60006002820490506001821680610a0857607f821691505b602082108103610a1b57610a1a6109c1565b5b50919050565b60008190508160005260206000209050919050565b60006020601f8301049050919050565b600082821b905092915050565b600060088302610a837fffffffffffffffffffffffffffffffffffffffffffffffffffffffffffffffff82610a46565b610a8d8683610a46565b95508019841693508086168417925050509392505050565b6000819050919050565b6000610aca610ac5610ac0846104d5565b610aa5565b6104d5565b9050919050565b6000819050919050565b610ae483610aaf565b610af8610af082610ad1565b848454610a53565b825550505050565b600090565b610b0d610b00565b610b18818484610adb565b505050565b5b81811015610b3c57610b31600082610b05565b600181019050610b1e565b5050565b601f821115610b8157610b5281610a21565b610b5b84610a36565b81016020851015610b6a578190505b610b7e610b7685610a36565b830182610b1d565b50505b505050565b600082821c905092915050565b6000610ba460001984600802610b86565b1980831691505092915050565b6000610bbd8383610b93565b9150826002028217905092915050565b610bd68261076c565b67ffffffffffffffff811115610bef57610bee610538565b5b610bf982546109f0565b610c04828285610b40565b600060209050601f831160018114610c375760008415610c25578287015190505b610c2f8582610bb1565b865550610c97565b601f198416610c4586610a21565b60005b82811015610c6d57848901518255600182019150602085019450602081019050610c48565b86831015610c8a5784890151610c86601f891682610b93565b8355505b6001600288020188555050505b505050505050565b600060a082019050610cb460008301886104df565b8181036020830152610cc681876107b2565b90508181036040830152610cda81866107b2565b9050610ce960608301856104ab565b610cf6608083018461086e565b969550505050505056fea2646970667358221220779e3ec56b292812341f061e81cd75d75b04f94a6408b2ea636b5e63e832803964736f6c634300081b0033",
  "linkReferences": {},
  "deployedLinkReferences": {}
}